{
  "contractName": "BasicLoan",
  "abi": [
    {
      "inputs": [
        {
          "components": [
            {
              "internalType": "address",
              "name": "borrower",
              "type": "address"
            },
            {
              "internalType": "address",
              "name": "lender",
              "type": "address"
            },
            {
              "internalType": "uint256",
              "name": "amount",
              "type": "uint256"
            },
            {
              "internalType": "uint256",
              "name": "fee",
              "type": "uint256"
            },
            {
              "internalType": "uint256",
              "name": "collateral",
              "type": "uint256"
            },
            {
              "internalType": "uint256",
              "name": "duration",
              "type": "uint256"
            },
            {
              "internalType": "uint256",
              "name": "start",
              "type": "uint256"
            },
            {
              "internalType": "uint256",
              "name": "end",
              "type": "uint256"
            }
          ],
          "internalType": "struct BasicLoan.LoanTerms",
          "name": "_loanterms",
          "type": "tuple"
        },
        {
          "internalType": "address",
          "name": "_dai",
          "type": "address"
        }
      ],
      "stateMutability": "nonpayable",
      "type": "constructor"
    },
    {
      "inputs": [],
      "name": "borrower",
      "outputs": [
        {
          "internalType": "address payable",
          "name": "",
          "type": "address"
        }
      ],
      "stateMutability": "view",
      "type": "function"
    },
    {
      "inputs": [],
      "name": "dai",
      "outputs": [
        {
          "internalType": "address",
          "name": "",
          "type": "address"
        }
      ],
      "stateMutability": "view",
      "type": "function"
    },
    {
      "inputs": [],
      "name": "lender",
      "outputs": [
        {
          "internalType": "address payable",
          "name": "",
          "type": "address"
        }
      ],
      "stateMutability": "view",
      "type": "function"
    },
    {
      "inputs": [],
      "name": "fundLoan",
      "outputs": [],
      "stateMutability": "payable",
      "type": "function"
    },
    {
      "inputs": [],
      "name": "takeLoanAcceptLoanTerms",
      "outputs": [],
      "stateMutability": "payable",
      "type": "function"
    },
    {
      "inputs": [],
      "name": "repay",
      "outputs": [],
      "stateMutability": "nonpayable",
      "type": "function"
    },
    {
      "inputs": [],
      "name": "liquidate",
      "outputs": [],
      "stateMutability": "nonpayable",
      "type": "function"
    }
  ],
  "bytecode": "0x60806040523480156200001157600080fd5b50604051620013ef380380620013ef8339818101604052810190620000379190620003e6565b816000808201518160000160006101000a81548173ffffffffffffffffffffffffffffffffffffffff021916908373ffffffffffffffffffffffffffffffffffffffff16021790555060208201518160010160006101000a81548173ffffffffffffffffffffffffffffffffffffffff021916908373ffffffffffffffffffffffffffffffffffffffff16021790555060408201518160020155606082015181600301556080820151816004015560a0820151816005015560c0820151816006015560e0820151816007015590505033600860016101000a81548173ffffffffffffffffffffffffffffffffffffffff021916908373ffffffffffffffffffffffffffffffffffffffff16021790555080600a60006101000a81548173ffffffffffffffffffffffffffffffffffffffff021916908373ffffffffffffffffffffffffffffffffffffffff1602179055506000600860006101000a81548160ff02191690836003811115620001b157620001b06200042f565b5b021790555050506200045e565b6000604051905090565b600080fd5b600080fd5b6000601f19601f8301169050919050565b7f4e487b7100000000000000000000000000000000000000000000000000000000600052604160045260246000fd5b6200021d82620001d2565b810181811067ffffffffffffffff821117156200023f576200023e620001e3565b5b80604052505050565b600062000254620001be565b905062000262828262000212565b919050565b600073ffffffffffffffffffffffffffffffffffffffff82169050919050565b6000620002948262000267565b9050919050565b620002a68162000287565b8114620002b257600080fd5b50565b600081519050620002c6816200029b565b92915050565b6000819050919050565b620002e181620002cc565b8114620002ed57600080fd5b50565b6000815190506200030181620002d6565b92915050565b60006101008284031215620003215762000320620001cd565b5b6200032e61010062000248565b905060006200034084828501620002b5565b60008301525060206200035684828501620002b5565b60208301525060406200036c84828501620002f0565b60408301525060606200038284828501620002f0565b60608301525060806200039884828501620002f0565b60808301525060a0620003ae84828501620002f0565b60a08301525060c0620003c484828501620002f0565b60c08301525060e0620003da84828501620002f0565b60e08301525092915050565b6000806101208385031215620004015762000400620001c8565b5b6000620004118582860162000307565b9250506101006200042585828601620002b5565b9150509250929050565b7f4e487b7100000000000000000000000000000000000000000000000000000000600052602160045260246000fd5b610f81806200046e6000396000f3fe6080604052600436106100705760003560e01c80637df1f1b91161004e5780637df1f1b9146100ad5780638db57994146100d8578063bcead63e146100e2578063f4b9fa751461010d57610070565b806328a070251461007557806338dc578a1461008c578063402d888314610096575b600080fd5b34801561008157600080fd5b5061008a610138565b005b6100946102f8565b005b3480156100a257600080fd5b506100ab6104ef565b005b3480156100b957600080fd5b506100c26107d5565b6040516100cf9190610a1c565b60405180910390f35b6100e06107fb565b005b3480156100ee57600080fd5b506100f761098f565b6040516101049190610a1c565b60405180910390f35b34801561011957600080fd5b506101226109b5565b60405161012f9190610a58565b60405180910390f35b600180600381111561014d5761014c610a73565b5b600860009054906101000a900460ff16600381111561016f5761016e610a73565b5b146101af576040517f08c379a00000000000000000000000000000000000000000000000000000000081526004016101a690610aff565b60405180910390fd5b600860019054906101000a900473ffffffffffffffffffffffffffffffffffffffff1673ffffffffffffffffffffffffffffffffffffffff163373ffffffffffffffffffffffffffffffffffffffff161461023f576040517f08c379a000000000000000000000000000000000000000000000000000000000815260040161023690610b91565b60405180910390fd5b600060070154421015610287576040517f08c379a000000000000000000000000000000000000000000000000000000000815260040161027e90610bfd565b60405180910390fd5b600860019054906101000a900473ffffffffffffffffffffffffffffffffffffffff1673ffffffffffffffffffffffffffffffffffffffff166108fc6000600401549081150290604051600060405180830381858888f193505050501580156102f4573d6000803e3d6000fd5b5050565b600180600381111561030d5761030c610a73565b5b600860009054906101000a900460ff16600381111561032f5761032e610a73565b5b1461036f576040517f08c379a000000000000000000000000000000000000000000000000000000000815260040161036690610aff565b60405180910390fd5b60006004015434146103b6576040517f08c379a00000000000000000000000000000000000000000000000000000000081526004016103ad90610c69565b60405180910390fd5b33600960006101000a81548173ffffffffffffffffffffffffffffffffffffffff021916908373ffffffffffffffffffffffffffffffffffffffff1602179055506001600860006101000a81548160ff0219169083600381111561041d5761041c610a73565b5b0217905550600a60009054906101000a900473ffffffffffffffffffffffffffffffffffffffff1673ffffffffffffffffffffffffffffffffffffffff166323b872dd600960009054906101000a900473ffffffffffffffffffffffffffffffffffffffff16306000600201546040518463ffffffff1660e01b81526004016104a893929190610d01565b6020604051808303816000875af11580156104c7573d6000803e3d6000fd5b505050506040513d601f19601f820116820180604052508101906104eb9190610d75565b5050565b600180600381111561050457610503610a73565b5b600860009054906101000a900460ff16600381111561052657610525610a73565b5b14610566576040517f08c379a000000000000000000000000000000000000000000000000000000000815260040161055d90610aff565b60405180910390fd5b600960009054906101000a900473ffffffffffffffffffffffffffffffffffffffff1673ffffffffffffffffffffffffffffffffffffffff163373ffffffffffffffffffffffffffffffffffffffff16146105f6576040517f08c379a00000000000000000000000000000000000000000000000000000000081526004016105ed90610dee565b60405180910390fd5b600060070154421061063d576040517f08c379a000000000000000000000000000000000000000000000000000000000815260040161063490610e5a565b60405180910390fd5b600a60009054906101000a900473ffffffffffffffffffffffffffffffffffffffff1673ffffffffffffffffffffffffffffffffffffffff166323b872dd600960009054906101000a900473ffffffffffffffffffffffffffffffffffffffff16600860019054906101000a900473ffffffffffffffffffffffffffffffffffffffff166000600301546000600201546106d79190610ea9565b6040518463ffffffff1660e01b81526004016106f593929190610edd565b6020604051808303816000875af1158015610714573d6000803e3d6000fd5b505050506040513d601f19601f820116820180604052508101906107389190610d75565b50600960009054906101000a900473ffffffffffffffffffffffffffffffffffffffff1673ffffffffffffffffffffffffffffffffffffffff166108fc6000600401549081150290604051600060405180830381858888f193505050501580156107a6573d6000803e3d6000fd5b506002600860006101000a81548160ff021916908360038111156107cd576107cc610a73565b5b021790555050565b600960009054906101000a900473ffffffffffffffffffffffffffffffffffffffff1681565b60008060038111156108105761080f610a73565b5b600860009054906101000a900460ff16600381111561083257610831610a73565b5b14610872576040517f08c379a000000000000000000000000000000000000000000000000000000000815260040161086990610aff565b60405180910390fd5b60006004015434146108b9576040517f08c379a00000000000000000000000000000000000000000000000000000000081526004016108b090610c69565b60405180910390fd5b6001600860006101000a81548160ff021916908360038111156108df576108de610a73565b5b0217905550600a60009054906101000a900473ffffffffffffffffffffffffffffffffffffffff1673ffffffffffffffffffffffffffffffffffffffff166323b872dd33306000600201546040518463ffffffff1660e01b815260040161094893929190610f14565b6020604051808303816000875af1158015610967573d6000803e3d6000fd5b505050506040513d601f19601f8201168201806040525081019061098b9190610d75565b5050565b600860019054906101000a900473ffffffffffffffffffffffffffffffffffffffff1681565b600a60009054906101000a900473ffffffffffffffffffffffffffffffffffffffff1681565b600073ffffffffffffffffffffffffffffffffffffffff82169050919050565b6000610a06826109db565b9050919050565b610a16816109fb565b82525050565b6000602082019050610a316000830184610a0d565b92915050565b6000610a42826109db565b9050919050565b610a5281610a37565b82525050565b6000602082019050610a6d6000830184610a49565b92915050565b7f4e487b7100000000000000000000000000000000000000000000000000000000600052602160045260246000fd5b600082825260208201905092915050565b7f496e76616c696420737461747573000000000000000000000000000000000000600082015250565b6000610ae9600e83610aa2565b9150610af482610ab3565b602082019050919050565b60006020820190508181036000830152610b1881610adc565b9050919050565b7f4f6e6c7920746865206c656e6465722063616e206c697175696461746520746860008201527f65206c6f616e0000000000000000000000000000000000000000000000000000602082015250565b6000610b7b602683610aa2565b9150610b8682610b1f565b604082019050919050565b60006020820190508181036000830152610baa81610b6e565b9050919050565b7f4c6f616e206e6f74206f76657264756520796574000000000000000000000000600082015250565b6000610be7601483610aa2565b9150610bf282610bb1565b602082019050919050565b60006020820190508181036000830152610c1681610bda565b9050919050565b7f496e76616c696420636f6c6c61746572616c0000000000000000000000000000600082015250565b6000610c53601283610aa2565b9150610c5e82610c1d565b602082019050919050565b60006020820190508181036000830152610c8281610c46565b9050919050565b6000819050919050565b6000610cae610ca9610ca4846109db565b610c89565b6109db565b9050919050565b6000610cc082610c93565b9050919050565b6000610cd282610cb5565b9050919050565b610ce281610cc7565b82525050565b6000819050919050565b610cfb81610ce8565b82525050565b6000606082019050610d166000830186610cd9565b610d236020830185610a49565b610d306040830184610cf2565b949350505050565b600080fd5b60008115159050919050565b610d5281610d3d565b8114610d5d57600080fd5b50565b600081519050610d6f81610d49565b92915050565b600060208284031215610d8b57610d8a610d38565b5b6000610d9984828501610d60565b91505092915050565b7f4f6e6c7920626f72726f7765722063616e20726570617920746865206c6f616e600082015250565b6000610dd8602083610aa2565b9150610de382610da2565b602082019050919050565b60006020820190508181036000830152610e0781610dcb565b9050919050565b7f4c6f616e206f7665726475650000000000000000000000000000000000000000600082015250565b6000610e44600c83610aa2565b9150610e4f82610e0e565b602082019050919050565b60006020820190508181036000830152610e7381610e37565b9050919050565b7f4e487b7100000000000000000000000000000000000000000000000000000000600052601160045260246000fd5b6000610eb482610ce8565b9150610ebf83610ce8565b9250828201905080821115610ed757610ed6610e7a565b5b92915050565b6000606082019050610ef26000830186610cd9565b610eff6020830185610cd9565b610f0c6040830184610cf2565b949350505050565b6000606082019050610f296000830186610a49565b610f366020830185610a49565b610f436040830184610cf2565b94935050505056fea2646970667358221220d19ac1ba873912345488c9b1614304c228951b2147e3d4b59f47077753739da364736f6c63430008110033",
  "immutableReferences": {},
  "source": "// SPDX-License-Identifier: UNLICENSED\r\npragma solidity ^0.8.17;\r\nimport \"./DAI.sol\";\r\n\r\n/**\r\n    * Basic loan contract allows to borrow DAI for a fixed period of time using ETH as collateral.\r\n    * Fee is constant and pre-defined. The collateral will be liquidated and transferred to the lender \r\n\t\tin the case of lack of payment.\r\n */\r\n\r\ncontract BasicLoan {\r\n\r\n\t// The structure defining the basic loan parameters\r\n\tstruct LoanTerms {\r\n\t\taddress borrower; // The address of the borrower\r\n\t\taddress lender; // The address of the lender\r\n\t\tuint256 amount; // The amount of DAI borrowed\r\n\t\tuint256 fee; // The fee in DAI\r\n\t\tuint256 collateral; // The amount of ETH used as collateral\r\n\t\tuint256 duration; // The duration of the loan in seconds\r\n\t\tuint256 start; // The timestamp of the loan start\r\n\t\tuint256 end; // The timestamp of the loan end\r\n\t}\r\n\tLoanTerms loanterms;\r\n\r\n\t// The structure defining the loan status\r\n\t// The loan can be in 4 states: Created, Started, Ended, Liquidated\r\n\r\n\tenum LoanStatus { Created, Started, Ended, Liquidated }\r\n\tLoanStatus loanstatus;\r\n\r\n\t// Modifier that prevents some functions from being called in any other status than the one specified\r\n\tmodifier onlyInState(LoanStatus expectedStatus) {\r\n\t\trequire(loanstatus == expectedStatus, \"Invalid status\");\r\n\t\t_;\r\n\t}\r\n\r\n\taddress payable public lender;\r\n\taddress payable public borrower;\r\n\taddress public dai;\r\n\r\n\tconstructor (LoanTerms memory _loanterms, address _dai) {\r\n\t\tloanterms = _loanterms;\r\n\t\tlender = payable(msg.sender);\r\n\t\tdai = _dai;\r\n\t\tloanstatus = LoanStatus.Created;\r\n\t}\r\n\r\n\t// Transfer DAI from the lender to the contract so that we can later transfer it to the borrower in form of a loan\r\n\t// This requires the lender to allow the contract to transfer DAI on its behalf\r\n\t// Will fail otherwise\r\n\tfunction fundLoan() public payable onlyInState(LoanStatus.Created) {\r\n\t\trequire(msg.value == loanterms.collateral, \"Invalid collateral\");\r\n\t\tloanstatus = LoanStatus.Started;\r\n\t\tDAI(dai).transferFrom(\r\n\t\t\tmsg.sender, \r\n\t\t\taddress(this), \r\n\t\t\tloanterms.amount\r\n\t\t);\r\n\t}\r\n\r\n\t// Function to take the loan\r\n\tfunction takeLoanAcceptLoanTerms()\r\n\t\tpublic\r\n\t\t/** Collateral should be sent to the contract before the loan is taken */ \r\n\t\tpayable\r\n\t\t/** Prevents loan from being taken twice */\r\n\t\tonlyInState(LoanStatus.Started)\r\n\t{\r\n\t\t// Check that the exact amount of the collateral is transferred to the contract.\r\n\t\t// Will be kept in the contract until the loan is repaid or liquidated\r\n\t\trequire(\r\n\t\t\tmsg.value == loanterms.collateral,\r\n\t\t\t\"Invalid collateral\"\r\n\t\t);\r\n\t\t// Record the borrower address so that s/he will be able to repay the loan / unlock the collateral\r\n\t\tborrower = payable(msg.sender);\r\n\t\tloanstatus = LoanStatus.Started;\r\n\t\t// Transfer the actual tokens that are being loaned to the borrower\r\n\t\tDAI(dai).transferFrom(\r\n\t\t\tborrower, \r\n\t\t\taddress(this), \r\n\t\t\tloanterms.amount\r\n\t\t);\r\n\t  \r\n\t}\r\n\r\n\t// Function to repay the loan. It can be repaid early with no fees. Borrower should allow this contract to pull tokens before calling this.\r\n\tfunction repay() public onlyInState(LoanStatus.Started) {\r\n\t\t// Check that the borrower is the one who is repaying the loan\r\n\t\trequire(msg.sender == borrower, \"Only borrower can repay the loan\");\r\n\t\t// Check that the loan is not overdue\r\n\t\trequire(block.timestamp < loanterms.end, \"Loan overdue\");\r\n\t\t// Transfer the loan amount + fee to the lender. If there is not enough, it will fail.\r\n\t\tDAI(dai).transferFrom(\r\n\t\t\tborrower, \r\n\t\t\tlender, \r\n\t\t\tloanterms.amount + loanterms.fee\r\n\t\t);\r\n\t\t// Transfer the collateral back to the borrower\r\n\t\tborrower.transfer(loanterms.collateral);\r\n\t\tloanstatus = LoanStatus.Ended;\r\n\t}\r\n\r\n\t// This function is to be called by the lender in case the loan is not repaid on time.\r\n\t// It will transfer the whole collateral to the lender. The collateral is expected to be\r\n\t//\tmore valuable than the loan so that the lender doesn't lose any money in this case.\r\n\tfunction liquidate() public onlyInState(LoanStatus.Started) {\r\n\t\trequire(msg.sender == lender, \"Only the lender can liquidate the loan\");\r\n\t\trequire(\r\n\t\t\tblock.timestamp >= loanterms.end,\r\n\t\t\t\"Loan not overdue yet\"\r\n\t\t);\r\n\t\t// Send the collateral to the lender and mark the loan as liquidated\r\n\t\tlender.transfer(loanterms.collateral);\r\n\t}\r\n\r\n}",
  "sourcePath": "C:\\Users\\User\\velvet-loans\\contracts\\VelvetLoans.sol",
  "compiler": {
    "name": "solc",
    "version": "0.8.17+commit.8df45f5f.Emscripten.clang"
  },
  "schemaVersion": "3.4.10",
  "updatedAt": "2022-11-14T15:29:34.523Z",
  "devdoc": {
    "kind": "dev",
    "methods": {},
    "version": 1
  },
  "userdoc": {
    "kind": "user",
    "methods": {},
    "notice": "Basic loan contract allows to borrow DAI for a fixed period of time using ETH as collateral. Fee is constant and pre-defined. The collateral will be liquidated and transferred to the lender  in the case of lack of payment.",
    "version": 1
  }
}